:0E0AA600302E3030303056302E30303030565A
:10094B00E4F50AF50B780C7C00FD7BFF7A0A79A69F
:10095B00FE7F071208D078137C007D007BFF7A0A9C
:10096B0079AD7E007F071208D0C2B5120A59120A60
:10097B0075AFA0EF75F0C4A4FBAAF075080075095C
:10098B0005E5096401450860257C007D0AAF03AECF
:10099B00021208F6ED2430FF74132509F8A6077C24
:1009AB00007D0AAF03AE021208F6AA06AB07E509F3
:1009BB00150970021508E509B4FFC6E508B4FFC1B7
:1009CB00E4F508F509AF09740C2FF8E6FE74132F44
:1009DB00F8E66E600A050BE50B7012050A800E0532
:1009EB0009E509700205086407450870D8E50B4551
:1009FB000A60357F01120A8AE4F508F5097413259C
:100A0B0009F8E6FF120A98AF0974132FF8E6FE7483
:100A1B000C2FF8A6060509E50970020508C3940713
:100A2B00E5086480948040D5E4F50AF50B0209795A
:060A3B00D2B67F0A7E0026
:100A4100E4FDFCC3ED9FEE6480F8EC6480985007F0
:070A51000DBD00010C80EC5B
:010A5800227B
:100A7500C293C2917F327E00120A41D291D2902058
:050A850092FDC2902269
:100A59007F38120A8A120A3D7F0C120A8A120A3D4D
:0C0A69007F80120A8A7F0A7E00020A4188
:0E0A8A008F80C2B4120A3BC2B67F64020A41DA
:0E0A98008F80D2B4120A3BC2B67F64020A41BC
:03000000020AB43D
:0C0AB400787FE4F6D8FD75811902094B2B
:10080000E709F608DFFA8046E709F208DFFA803EDA
:1008100088828C83E709F0A3DFFA8032E309F608C7
:10082000DFFA8078E309F208DFFA807088828C832F
:10083000E309F0A3DFFA806489828A83E0A3F608E3
:10084000DFFA805889828A83E0A3F208DFFA804CBD
:1008500080D280FA80C680D4806980F28033801094
:1008600080A680EA809A80A880DA80E280CA8033FD
:1008700089828A83ECFAE493A3C8C582C8CCC58375
:10088000CCF0A3C8C582C8CCC583CCDFE9DEE78045
:100890000D89828A83E493A3F608DFF9ECFAA9F0C4
:1008A000EDFB2289828A83ECFAE0A3C8C582C8CC1A
:1008B000C583CCF0A3C8C582C8CCC583CCDFEADE33
:1008C000E880DB89828A83E493A3F208DFF980CC95
:1008D00088F0EF60010E4E60C388F0ED2402B4048E
:1008E0000050B9F582EB2402B4040050AF23234535
:0608F00082239008507302
:1008F600BC000BBE0029EF8DF084FFADF022E4CCE6
:10090600F875F008EF2FFFEE33FEEC33FCEE9DECAE
:10091600984005FCEE9DFE0FD5F0E9E4CEFD22EDF4
:10092600F8F5F0EE8420D21CFEADF075F008EF2F3E
:10093600FFED33FD4007985006D5F0F222C398FD2F
:050946000FD5F0EA22CC
:00000001FF
