:100ABA00486F6C6420476C6F62616C20537461727A
:100ACA007400546F20426567696E20456C656374D3
:100ADA00696F6E00456C656374696F6E205374614B
:100AEA007274656421005072657373205374617265
:100AFA00740057656C636F6D6521210050726573D0
:100B0A007320616E79206B657900746F20766F743B
:100B1A0065005652200053525300564B200048504D
:100B2A005200636F6E6669726D00456C6563746925
:100B3A006F6E20456E6465642100564F5445443AF1
:100B4A002056522000564F5445443A2053525300DF
:100B5A00564F5445443A20564B2000564F5445446C
:100B6A003A2048505200526573756C74733A0056B5
:100B7A00523A20005352533A2000564B3A2000482A
:0E0B8A0050523A200057696E6E65723A200094
:080ECB000227000002290000CB
:10097B007580FFE4F5A0C294C293C292C291F53187
:10098B00F532F52FF530F52DF52EF52BF52CC29014
:10099B00C2957F01120EB3120E4B7BFF7A0A79BA06
:1009AB00120E217FC0120EB37BFF7A0A79CC120E86
:1009BB00213090FD752900752A017F01120EB37B42
:1009CB00FF7A0A79DE120E217F01120EB3120E1B73
:1009DB00E52A45297003020AB9209503020A9FE50F
:1009EB002845276003020A9FF5277528017F01120E
:1009FB000EB37BFF7A0A79FC120E217FC87E0012A0
:100A0B000E7B7F01120EB37BFF7A0B7906120E2140
:100A1B007FC0120EB37BFF7A0B7914120E217FC8A5
:100A2B007E00120E7B7F01120EB37BFF7A0B791CBB
:100A3B00120E21120E9D7F84120EB37BFF7A0B795F
:100A4B0020120E21120E9D7F88120EB37BFF7A0BA4
:100A5B007924120E21120E9D7F8C120EB37BFF7A1E
:100A6B000B7928120E21120B987580FF7F01120E45
:100A7B00B37F80120EB37FC0120EB37BFF7A0B795C
:100A8B002C120E212095FDE4F527F5287F01120E7F
:100A9B00B3120E1B3090030209DB7F01120EB37BE6
:0F0AAB00FF7A0B7934120E21120E77120CD02223
:100B98007580FF2091092092062093033094F43049
:100BA8009124C2807F01120EB37F80120EB3052CF0
:100BB800E52C7002052B7BFF7A0B7944120E217FFE
:100BC8002C7E01120E7B309224C2817F01120EB35B
:100BD8007F80120EB3052EE52E7002052D7BFF7A5D
:100BE8000B794F120E217F2C7E01120E7B3093243D
:100BF800C2827F01120EB37F80120EB30530E5303A
:100C08007002052F7BFF7A0B795A120E217F2C7EFA
:100C180001120E7B309424C2807F01120EB37F80B4
:100C2800120EB30532E532700205317BFF7A0B797B
:0C0C380065120E217F2C7E01120E7B2223
:100CD0007F01120EB37BFF7A0B7970120E21120E78
:100CE000777F80120EB37BFF7A0B7979120E21AFDA
:100CF0002CAE2B120DC5120E777F01120EB37F8022
:100D0000120EB37BFF7A0B797E120E21AF2EAE2D21
:100D1000120DC5120E777F01120EB37F80120EB333
:100D20007BFF7A0B7984120E21AF30AE2F120DC5E6
:100D3000120E777F01120EB37F80120EB37BFF7A03
:100D40000B7989120E21AF32AE31120DC57FE87ECC
:070D500003120E7B020800F4
:10080000E4F508F509F51EF51FD3E52C9509E52B50
:1008100095084006852B08852C09D3E52E9509E51A
:100820002D95084006852D08852E09D3E5309509BC
:10083000E52F95084006852F08853009D3E53295C8
:1008400009E531950840068531088532097F647EC7
:1008500000120E7B7F01120EB37F80120EB37BFF5E
:100860007A0B798F120E217FFA7E00120E7BE5093A
:10087000B52C2FE508B52B2A051FE51F7002051EB4
:1008800014240AF87656051FE51F7002051E14246D
:100890000AF87652051FE51F7002051E14240AF897
:1008A0007620E509652E7004E508652D7038051F72
:1008B000E51F7002051E14240AF87653051FE51F74
:1008C0007002051E14240AF87652051FE51F7002F7
:1008D000051E14240AF87653051FE51F7002051E35
:1008E00014240AF87620E509B5302FE508B52F2A3B
:1008F000051FE51F7002051E14240AF87656051F11
:10090000E51F7002051E14240AF8764B051FE51F2B
:100910007002051E14240AF87620E5096532700479
:10092000E50865317038051FE51F7002051E1424A7
:100930000AF87648051FE51F7002051E14240AF800
:100940007650051FE51F7002051E14240AF8765222
:10095000051FE51F7002051E14240AF87620740A8C
:10096000251FF8E4F67FC0120EB37B007A00790AE7
:0B097000120E21120E777F01020EB361
:040DC5008E088F09FC
:100DC900E4FBFAAE08AF097C007D0A120D707423AA
:100DD9002BF8A605AE08AF097C007D0A120D708EAE
:100DE900088F090BBB00010AEB64034A70D5750A29
:100DF90000750B027423250BF8E62430FF120EBF91
:100E0900E50B150B7002150AC3E50A64809480503E
:010E1900E3F5
:010E1A0022B5
:060E9B00D2B27FF47E01DB
:100EA100E4FDFCC3ED9FEC9E50070DBD00010C80DD
:010EB100F24E
:010EB200221D
:040E77007FF47E0185
:100E7B00E4FDFCC3ED9FEC9E5015E4FBFA0BBB00AD
:0F0E8B00010ABA04F8BBFBF50DBD00010C80E4B1
:010E9A002235
:100E4B007F38120EB3120E9D7F01120EB3120E9D40
:100E5B007F0C120EB3120E9D7F80120EB3120E9DDD
:0C0E6B007F0E120EB37FF47E01020EA178
:0C0EB3008FA0C2B1C2B0120E9BC2B222CE
:060E1B007BFF7A0A79F06A
:100E21008B208A218922AB20AA21A922120D57FFEA
:100E31006017120EBF7FD07E07120EA1740125220A
:0A0E4100F522E43521F52180DD22C1
:0C0EBF008FA0D2B0C2B1120E9BC2B222B2
:03000000020C44AB
:0C0C4400787FE4F6D8FD758132020C8B3D
:100D5700BB010689828A83E0225002E722BBFE029A
:090D6700E32289828A83E49322CD
:100D7000BC000BBE0029EF8DF084FFADF022E4CC67
:100D8000F875F008EF2FFFEE33FEEC33FCEE9DEC30
:100D9000984005FCEE9DFE0FD5F0E9E4CEFD22ED76
:100DA000F8F5F0EE8420D21CFEADF075F008EF2FC0
:100DB000FFED33FD4007985006D5F0F222C398FDB1
:050DC0000FD5F0EA224E
:100C500002097BE493A3F8E493A34003F68001F236
:100C600008DFF48029E493A3F85407240CC8C333A5
:100C7000C4540F4420C8834004F456800146F6DF74
:100C8000E4800B0102040810204080900ECBE47E2B
:100C9000019360BCA3FF543F30E509541FFEE49369
:100CA000A360010ECF54C025E060A840B8E493A330
:100CB000FAE493A3F8E493A3C8C582C8CAC583CA5B
:100CC000F0A3C8C582C8CAC583CADFE9DEE780BE13
:010ED300001E
:00000001FF
